:100000000C9461000C947E000C947E000C947E0095
:100010000C947E000C947E000C947E000C947E0068
:100020000C947E000C947E000C947E000C947E0058
:100030000C947E000C947E000C947E000C947E0048
:100040000C9456010C947E000C947E000C947E005F
:100050000C947E000C947E000C947E000C947E0028
:100060000C947E000C947E00000000002400270009
:100070002A0000000000250028002B0000000000DE
:1000800023002600290004040404040404040202DA
:100090000202020203030303030301020408102007
:1000A0004080010204081020010204081020000012
:1000B0000008000201000003040700000000000027
:1000C000000011241FBECFEFD8E0DEBFCDBF11E08E
:1000D000A0E0B1E0E0EFF5E002C005900D92A031A4
:1000E000B107D9F721E0A0E1B1E001C01D92AA312A
:1000F000B207E1F70E94A0010C94F6020C940000F4
:10010000833081F028F4813099F08230A9F008958D
:100110008730A9F08830C9F08430B1F48091800034
:100120008F7D03C0809180008F7780938000089539
:1001300084B58F7784BD089584B58F7DFBCF809182
:10014000B0008F778093B00008958091B0008F7DCC
:10015000F9CFCF93DF93282F30E0F901E255FF4F1D
:100160008491F901E656FF4FD491F901EA57FF4F08
:10017000C491CC23A1F081110E948000EC2FF0E00B
:10018000EE0FFF1FE458FF4FA591B491EC91ED23C2
:1001900081E090E009F480E0DF91CF91089580E064
:1001A00090E0FACF1F93CF93DF93282F30E0F9012F
:1001B000E255FF4F8491F901E656FF4FD491F901C2
:1001C000EA57FF4FC491CC23A9F0162F81110E944A
:1001D0008000EC2FF0E0EE0FFF1FEE58FF4FA591CF
:1001E000B4918FB7F894EC91111108C0D095DE232B
:1001F000DC938FBFDF91CF911F910895DE2BF8CF55
:10020000CF93DF9390E0FC01E656FF4F24918A578D
:100210009F4FFC0184918823D1F090E0880F991FB3
:10022000FC01E859FF4FA591B491FC01EE58FF4F36
:10023000C591D49161110EC09FB7F8948C91E22FB3
:10024000E0958E238C932881E223E8839FBFDF9182
:10025000CF9108958FB7F894EC91E22BEC938FBF78
:10026000F6CF3FB7F8948091160190911701A091B5
:100270001801B091190126B5A89B05C02F3F19F0B0
:100280000196A11DB11D3FBFBA2FA92F982F882716
:10029000BC01CD01620F711D811D911D42E0660FF1
:1002A000771F881F991F4A95D1F708951F920F92C3
:1002B0000FB60F9211242F933F938F939F93AF9379
:1002C000BF938091120190911301A0911401B091FC
:1002D00015013091110123E0230F2D3758F50196B8
:1002E000A11DB11D20931101809312019093130160
:1002F000A0931401B09315018091160190911701FC
:10030000A0911801B09119010196A11DB11D809312
:10031000160190931701A0931801B0931901BF9192
:10032000AF919F918F913F912F910F900FBE0F90A2
:100330001F90189526E8230F0296A11DB11DD2CF5C
:10034000789484B5826084BD84B5816084BD85B5B0
:10035000826085BD85B5816085BD80916E008160BC
:1003600080936E0010928100809181008260809362
:100370008100809181008160809381008091800064
:100380008160809380008091B10084608093B1008F
:100390008091B00081608093B00080917A00846089
:1003A00080937A0080917A00826080937A008091B5
:1003B0007A00816080937A0080917A0080688093CF
:1003C0007A001092C10061E082E00E94000161E0C9
:1003D00083E00E94000161E084E00E94000161E08E
:1003E00085E00E94000160E087E00E94000160E07B
:1003F00088E00E94000130E1E32E31E0F32E08E0B6
:1004000011E0F801C0810E5F1F4F61E08C2F0E9448
:10041000000160E08C2F0E94D200E016F10689F7FF
:1004200020E0C22E20E0D22E87E00E94A900EC013D
:10043000909307018093060188E00E94A9009093A1
:10044000050180930401CD2B09F080C08091020149
:1004500090910301019709F079C0809110018111F9
:1004600075C098E0E92E91E0F92ED0E0C0E0F701E8
:10047000A080B18061E08A2D0E940001209729F4BC
:1004800060E08A2D0E94D2002DC0CF3FD10511F42B
:1004900061E0F7CFF501FF27E255FF4FE491E3302C
:1004A00009F48AC048F4E130C9F0E23009F47FC0B1
:1004B000C038D1056CF7E4CFE73009F487C0E830E5
:1004C00009F48CC0E430A1F78091800080628093B1
:1004D0008000D0938B00C0938A0004C084B58068EC
:1004E00084BDC7BD0E9431012B013C018AE0882EEA
:1004F000912CA12CB12C0E94310164197509860937
:100500009709683E734081059105A8F3F1E08F1AC1
:100510009108A108B10828EE420E23E0521E611C8A
:10052000711C81149104A104B10429F72196C1150D
:10053000F1E0DF0709F09BCF22E0E20EF11C0E157F
:100540001F0509F092CF81E080931001E090040133
:10055000F0900501E114F104B9F48091000190914B
:100560000101019789F4C8E0D1E0B880229661E0EA
:100570008B2D0E94000160E08B2D0E94D200C017DD
:10058000D10799F71092100180910601909107010F
:100590009093030180930201F0920101E092000127
:1005A000C114D10409F440CF0E9400003DCF84B5AE
:1005B000806284BDC8BD96CF8091800080688093A2
:1005C0008000D0938900C09388008CCF8091B000C8
:1005D00080688093B000C093B30084CF8091B00056
:1005E00080628093B000C093B4007CCFF894FFCFBA
:1005F00001000100010001000200030004000500E9
:00000001FF
