:100000000C9461000C9473000C9473000C947300B6
:100010000C9473000C9473000C9473000C94730094
:100020000C9473000C9473000C9473000C94730084
:100030000C9473000C9473000C9473000C94730074
:100040000C94AB010C9473000C9473000C9473002B
:100050000C9473000C9473000C9473000C94730054
:100060000C9473000C947300000000002300260021
:10007000290000000000240027002A0000000000E2
:10008000250028002B0004040404040404040202D4
:100090000202020203030303030301020408102007
:1000A0004080010204081020010204081020000012
:1000B0000008000201000003040700000000000027
:1000C000000011241FBECFEFD8E0DEBFCDBF21E07E
:1000D000A0E0B1E001C01D92AB30B207E1F70E9491
:1000E000F5010C9491020C940000833081F028F407
:1000F000813099F08230A9F008958730A9F08830D6
:10010000C9F08430B1F4809180008F7D03C080916C
:1001100080008F7780938000089584B58F7784BDA9
:10012000089584B58F7DFBCF8091B0008F77809349
:10013000B00008958091B0008F7DF9CF1F93CF93C9
:10014000DF93E4EBF0E09491E0EAF0E0D491ECE8A6
:10015000F0E0C491CC23B9F0182F992319F0892F1E
:100160000E947500EC2FF0E0EE0FFF1FE458FF4FE8
:10017000A591B4918FB7F894EC91111108C0D09566
:10018000DE23DC938FBFDF91CF911F910895DE2B8B
:10019000F8CFCF93DF9390E0FC01E656FF4F249118
:1001A0008A579F4FFC0184918823D1F090E0880FFB
:1001B000991FFC01EE58FF4FA591B491FC01E45842
:1001C000FF4FC591D491623071F49FB7F8943C9180
:1001D000822F809583238C93E8812E2B28839FBFC9
:1001E000DF91CF9108958FB7F894EC912E2B2C933B
:1001F0008FBFF6CFCF93DF93EC0161E086E00E94E2
:10020000C900209729F480E0DF91CF910C949E00E3
:10021000CF3FD10511F481E0F7CFE4EBF0E0E491BA
:10022000E33029F140F4E130B1F0E230D9F0C038E8
:10023000D1058CF7E8CFE73021F1E83051F1E43017
:10024000B1F780918000806280938000D0938B0012
:10025000C0938A0004C084B5806884BDC7BDDF91A7
:10026000CF91089584B5806284BDC8BDF8CF8091D8
:100270008000806880938000D0938900C0938800BC
:10028000EECF8091B00080688093B000C093B3003F
:10029000E6CF8091B00080628093B000C093B4003C
:1002A000DECF3FB7F8948091070190910801A091AB
:1002B0000901B0910A0126B5A89B05C02F3F19F08E
:1002C0000196A11DB11D3FBFBA2FA92F982F8827D6
:1002D000BC01CD01620F711D811D911D42E0660FB1
:1002E000771F881F991F4A95D1F708958F929F9283
:1002F000AF92BF92CF92DF92EF92FF920E94510194
:100300004B015C0182E3C82ED12CE12CF12C0E9420
:100310005101681979098A099B09683E7340810572
:100320009105A8F321E0C21AD108E108F10888EE8E
:10033000880E83E0981EA11CB11CC114D104E104F5
:10034000F10429F7FF90EF90DF90CF90BF90AF902E
:100350009F908F9008951F920F920FB60F921124C5
:100360002F933F938F939F93AF93BF9380910301FC
:1003700090910401A0910501B09106013091020114
:1003800023E0230F2D3758F50196A11DB11D2093B1
:1003900002018093030190930401A0930501B0939F
:1003A00006018091070190910801A0910901B09187
:1003B0000A010196A11DB11D8093070190930801C8
:1003C000A0930901B0930A01BF91AF919F918F91C2
:1003D0003F912F910F900FBE0F901F90189526E818
:1003E000230F0296A11DB11DD2CF789484B58260EF
:1003F00084BD84B5816084BD85B5826085BD85B5C9
:10040000816085BD80916E00816080936E00109246
:1004100081008091810082608093810080918100C1
:100420008160809381008091800081608093800052
:100430008091B10084608093B1008091B0008160B0
:100440008093B00080917A00846080937A008091DC
:100450007A00826080937A0080917A008160809334
:100460007A0080917A00806880937A001092C100AF
:1004700061E086E00E94C90062E08EE00E94C9004F
:10048000CCEBD0E008EA10E094E9E92E90E0F92EF8
:1004900020E0C22E20E0D22EAA24AA94B12CFE0184
:1004A0008491F8019490F7018490882039F18111AA
:1004B0000E947500E82DF0E0EE0FFF1FE859FF4F96
:1004C000A591B4912C91809100019091010192220B
:1004D000A9F0059797FD20C090930101809300013A
:1004E00080910001909101010E94FA000E94760122
:1004F000C114D104A1F20E940000D1CF809100016B
:100500009091010105968F3F910531F32CF3B09244
:100510000101A0920001E4CF1092010110920001AC
:06052000DFCFF894FFCFCD
:00000001FF
