:100000000C9461000C9473000C9473000C947300B6
:100010000C9473000C9473000C9473000C94730094
:100020000C9473000C9473000C9473000C94730084
:100030000C9473000C9473000C9473000C94730074
:100040000C9419010C9473000C9473000C947300BD
:100050000C9473000C9473000C9473000C94730054
:100060000C9473000C94730000000000240027001F
:100070002A0000000000250028002B0004040404CE
:100080000404040402020202020203030303030342
:10009000020203010204081020408001020408103B
:1000A00020010204081020408040000000090003E5
:1000B000020000040508000000000000000000002D
:1000C000000011241FBECFEFD8E0DEBFCDBF21E07E
:1000D000A0E0B1E001C01D92AB30B207E1F70E9491
:1000E00063010C94D5010C94000090E0FC01E655EE
:1000F000FF4F2491FC01ED56FF4F3491FC01E45871
:10010000FF4FE491EE23C9F0222339F0243001F1AE
:10011000A8F4223069F1233079F1F0E0EE0FFF1FEF
:10012000EE58FF4FA591B4918FB7F894EC916111FF
:1001300026C030953E233C938FBF0895283071F040
:10014000293091F0253049F7809180008F7D03C0E0
:10015000809180008F7780938000DFCF8091B00006
:100160008F778093B000D9CF8091B0008F7DF9CF89
:1001700084B58F7784BDD1CF84B58F7DFBCF3E2BE7
:10018000DACF3FB7F8948091070190910801A091D0
:100190000901B0910A0126B5A89B05C02F3F19F0AF
:1001A0000196A11DB11D3FBFBA2FA92F982F8827F7
:1001B000BC01CD01620F711D811D911D42E0660FD2
:1001C000771F881F991F4A95D1F708958F929F92A4
:1001D000AF92BF92CF92DF92EF92FF926B017C01C0
:1001E0000E94C1004B015C01C114D104E104F1047F
:1001F000B9F00E94C100681979098A099B09683E13
:1002000073408105910580F321E0C21AD108E1080D
:10021000F10888EE880E83E0981EA11CB11CE4CF83
:10022000FF90EF90DF90CF90BF90AF909F908F9016
:1002300008951F920F920FB60F9211242F933F93A0
:100240008F939F93AF93BF9380910301909104018B
:10025000A0910501B09106013091020123E0230F26
:100260002D3768F126E8230F0296A11DB11D2093BA
:1002700002018093030190930401A0930501B093C0
:1002800006018091070190910801A0910901B091A8
:100290000A010196A11DB11D8093070190930801E9
:1002A000A0930901B0930A01BF91AF919F918F91E3
:1002B0003F912F910F900FBE0F901F9018950196B0
:1002C000A11DB11DD4CF789484B5836084BD85B55C
:1002D000836085BD80916E00816080936E0082E0B6
:1002E0008093810080918100816080938100809162
:1002F00080008160809380008091B1008460809351
:10030000B1008091B00081608093B00087E8809355
:100310007A001092C100E5E9F0E02491EEE7F0E008
:100320008491882399F090E0880F991FFC01E85987
:10033000FF4FA591B491FC01EE58FF4F8591949128
:100340008FB7F894EC91E22BEC938FBF10E4C0E0F0
:10035000D0E010937C0080917A00806480937A00D2
:1003600080917A0086FDFCCFC0907800D090790013
:10037000D0920101C092000161E082E00E9475000C
:100380000D2C000CEE08FF08C701B6010E94E60024
:1003900060E082E00E947500C701B6010E94E6009D
:0E03A0002097B9F20E940000D4CFF894FFCF4E
:00000001FF
