:100000000C9462000C948A000C948A000C948A0070
:100010000C948A000C948A000C948A000C948A0038
:100020000C948A000C948A000C948A000C948A0028
:100030000C948A000C948A000C948A000C948A0018
:100040000C94E3040C948A000C9453050C942D0535
:100050000C948A000C948A000C948A000C948A00F8
:100060000C948A000C948A000000000024002700F1
:100070002A0000000000250028002B0000000008D6
:10008000000201000003040700000000000000005F
:1000900000000000230026002900040404040404D6
:1000A0000404020202020202030303030303010227
:1000B00004081020408001020408102001020408F6
:1000C0001020850511241FBECFEFD8E0DEBFCDBFC5
:1000D00011E0A0E0B1E0E6E6F8E102C005900D9283
:1000E000AC39B107D9F722E0ACE9B1E001C01D920B
:1000F000A535B207E1F710E0C2E6D0E004C02197D1
:10010000FE010E942B0CC136D107C9F70E94D2050F
:100110000C94310C0C940000CF92DF92EF92FF927E
:10012000CF93DF93B0914902A0E08111AB2F809172
:100130004A0290E0880F991FAC0140575F4FC09072
:100140004F02D0905002E0905102F090520230E005
:1001500020E0FA01C591D491E881B90190E080E0F6
:10016000EB23EA130AC02F5F3F4F6C157D058E0508
:100170009F0578F36FEF7FEFCB01DF91CF91FF9079
:10018000EF90DF90CF900895CF93DF9390E0FC0144
:10019000E255FF4F249186569F4FFC01849188239E
:1001A000D1F090E0880F991FFC01E859FF4FA5910D
:1001B000B491FC01EE58FF4FC591D491623071F4B7
:1001C0009FB7F8943C91822F809583238C93E8818C
:1001D0002E2B28839FBFDF91CF9108958FB7F8947E
:1001E000EC912E2B2C938FBFF6CF3FB7F8948091D4
:1001F0009D0190919E01A0919F01B091A00126B513
:10020000A89B05C02F3F19F00196A11DB11D3FBF4E
:10021000BA2FA92F982F8827BC01CD01620F711D1D
:10022000811D911D42E0660F771F881F991F4A9517
:10023000D1F708958F929F92AF92BF92CF92DF92A3
:10024000EF92FF924B015C010E94F5006B017C0173
:100250000E94F5006C197D098E099F09683E734064
:1002600081059105A8F321E0821A9108A108B1083F
:1002700088EEC80E83E0D81EE11CF11C81149104A5
:10028000A104B10429F7FF90EF90DF90CF90BF90C9
:10029000AF909F908F9008958F929F92AF92BF9250
:1002A000EF92FF920F931F93CF93DF93CDB7DEB7FB
:1002B000C054D1400FB6F894DEBF0FBECDBF2FB7EC
:1002C000F8948091A1019091A201A091A301B09115
:1002D000A4012FBF40914B0250914C0260914D02FE
:1002E00070914E028C019D01041B150B260B370BE0
:1002F000B901A801403D574061057105A0F4809106
:100300005302C05CDE4F0FB6F894DEBF0FBECDBF08
:10031000DF91CF911F910F91FF90EF90BF90AF9021
:100320009F908F90089580934B0290934C02A093DE
:100330004D02B0934E021092460210924502109266
:100340004402109243021092420262E080914702FE
:100350000E94C40061E070E080E090E00E941A0119
:1003600061E0809147020E94C4008091470290E0C2
:10037000FC01E458FF4F2491FC01E255FF4F3491FA
:10038000FC01E656FF4FE491EE23D9F0222359F009
:10039000233009F44BC008F03EC0213009F44CC0B2
:1003A000223009F44DC0F0E0EE0FFF1FEE58FF4F72
:1003B000A591B4918FB7F894EC9130953E233C937E
:1003C0008FBF809148028551823008F046C08BE291
:1003D00091E10197F1F762E0809147020E94C40029
:1003E0008091540290E08230910538F0880F991F77
:1003F000880F991F05970197F1F7F89480E00E9404
:100400008C006F3F7F4F8F4F9F4F71F510925302BB
:10041000789480E076CF2730B1F02830D1F02430C6
:1004200009F0C1CF809180008F7D03C08091800052
:100430008F7780938000B7CF84B58F7784BDB3CF9B
:1004400084B58F7DFBCF8091B0008F778093B00013
:10045000AACF8091B0008F7DF9CF64E170E080E099
:1004600090E00E941A01B7CF81E00E948C006F3F9C
:100470007F4F8F4F9F4F51F2CE0101967C015E015D
:100480009FEBA91A9EEFB90A870180E00E948C00B9
:10049000F801608371838283938381E00E948C00E2
:1004A000F8016483758386839783085F1F4FA016C6
:1004B000B10659F7789430E020E0F7018080918010
:1004C000A280B3804481558166817781FFEF8F16CA
:1004D0009F06AF06BF0631F04F3F0FEF5007600792
:1004E000700719F41092530294CFF90183E0F59547
:1004F000E7958A95E1F7EE5BFD4F8081880F8416C2
:100500009506A606B70618F180832F5F3F4F18E0C7
:10051000E10EF11C2832310581F64091460220910E
:10052000420280914302280F3327331F80914402F7
:10053000280F311D80914502820F932F911D99271D
:100540004817190679F681E080935302DACE81606C
:10055000DBCFAF92BF92CF92DF92EF92FF920F93D9
:100560001F93CF93DF936C017B018B01040F151F49
:10057000EB015E01AE18BF08C017D10759F06991B1
:10058000D601ED91FC910190F081E02DC601099515
:10059000892B79F7C501DF91CF911F910F91FF90C2
:1005A000EF90DF90CF90BF90AF900895FC01538DF6
:1005B000448D252F30E0842F90E0821B930B54173D
:1005C00010F0CF96089501970895FC01918D828DCA
:1005D000981761F0A28DAE0FBF2FB11D5D968C9163
:1005E000928D9F5F9F73928F90E008958FEF9FEFA2
:1005F0000895FC01918D828D981731F0828DE80F5E
:10060000F11D858D90E008958FEF9FEF0895FC0117
:10061000918D228D892F90E0805C9F4F821B9109E4
:100620008F739927089585EA91E00E94070321E0DE
:10063000892B09F420E0822F089580E090E0892B37
:1006400029F00E94130381110C9400000895FC010D
:10065000A48DA80FB92FB11DA35ABF4F2C91848D23
:1006600090E001968F739927848FA689B7892C9380
:10067000A089B1898C91837080648C93938D848DD3
:10068000981306C00288F389E02D80818F7D8083D6
:100690000895EF92FF920F931F93CF93DF93EC0196
:1006A00081E0888F9B8D8C8D98131AC0E889F98919
:1006B000808185FF15C09FB7F894EE89FF8960831C
:1006C000E889F98980818370806480839FBF81E09D
:1006D00090E0DF91CF911F910F91FF90EF900895DF
:1006E000F62E0B8D10E00F5F1F4F0F731127E02EBA
:1006F0008C8D8E110CC00FB607FCFACFE889F989F2
:10070000808185FFF5CFCE010E942703F1CFEB8DCD
:10071000EC0FFD2FF11DE35AFF4FF0829FB7F894C5
:100720000B8FEA89FB8980818062CFCFCF93DF93E3
:10073000EC01888D8823B9F0AA89BB89E889F989F9
:100740008C9185FD03C0808186FD0DC00FB607FC2E
:10075000F7CF8C9185FFF2CF808185FFEDCFCE0161
:100760000E942703E9CFDF91CF910895FC0101900A
:100770000020E9F73197AF01481B590BBC0185EA0E
:1007800091E00C94A9028F929F92AF92BF920F9327
:100790001F93CF93DF93CDB7DEB7A1970FB6F89431
:1007A000DEBF0FBECDBF19A2423008F44AE08E0171
:1007B0000F5D1F4F842E912CB12CA12CA50194010B
:1007C0000E94090CE62FB901CA01EA30F4F4E05D99
:1007D000D801EE938D01232B242B252B79F790E064
:1007E00080E0109719F0CD010E94B603A1960FB6D4
:1007F000F894DEBF0FBECDBFDF91CF911F910F9157
:10080000BF90AF909F908F900895E95CE1CF4F9299
:100810005F926F927F928F929F92AF92BF92CF9290
:10082000DF92EF92FF920F931F93CF936B017C01A6
:10083000742EAC019B010E94EF0B882399F082E19A
:1008400091E0CF911F910F91FF90EF90DF90CF90AB
:10085000BF90AF909F908F907F906F905F904F90E0
:100860000C94B60346015701E894B7F82FEF3FEF19
:100870004FE75FE7C501B4010E94EF0B81110DC086
:100880002FEF3FEF4FE75FE7C501B4010E94DF099B
:1008900018161CF486E191E0D4CF2FEF3FEF4FE71D
:1008A0005FE4C701B6010E94370B18161CF48AE1F9
:1008B00091E0C7CF2FEF3FEF4FE75FECC701B601E5
:1008C0000E94DF0987FDF3CF20E030E0A901C701D6
:1008D000B6010E94DF0910E000E087FF0AC06DE268
:1008E00085EA91E00E9449038C01F7FAF094F7F849
:1008F000F094C0E060E070E080E09FE37C1641F09F
:1009000020E030E040E251E40E94E409CF5FF6CFFE
:10091000A70196010E9473092B013C010E94560A0F
:100920004B015C014AE00E94C3037C01E00EF11E12
:10093000CC23C1F1C501B4010E94850A9B01AC0121
:10094000C301B2010E9472094B015C016EE285EAAB
:1009500091E00E944903E80EF91EC15018F120E011
:1009600030E040E251E4C501B4010E943C0B2B0190
:100970003C010E94560A4B01B12CA12C4AE0C50152
:10098000B4010E94C303E80EF91EC501B4010E9420
:10099000850A9B01AC01C301B2010E9472094B019F
:1009A0005C01DBCFC701CF911F910F91FF90EF90BA
:1009B000DF90CF90BF90AF909F908F907F906F907F
:1009C0005F904F9008951F920F920FB60F921124CF
:1009D0002F933F938F939F93AF93BF938091A101E8
:1009E0009091A201A091A301B091A40130919C012A
:1009F00023E0230F2D3758F50196A11DB11D20933B
:100A00009C018093A1019093A201A093A301B093B4
:100A1000A40180919D0190919E01A0919F01B091B0
:100A2000A0010196A11DB11D80939D0190939E018F
:100A3000A0939F01B093A001BF91AF919F918F911F
:100A40003F912F910F900FBE0F901F90189526E8A1
:100A5000230F0296A11DB11DD2CF1F920F920FB688
:100A60000F9211242F933F934F935F936F937F9334
:100A70008F939F93AF93BF93EF93FF9385EA91E09A
:100A80000E942703FF91EF91BF91AF919F918F91AA
:100A90007F916F915F914F913F912F910F900FBE7A
:100AA0000F901F9018951F920F920FB60F9211245E
:100AB0002F938F939F93EF93FF93E091B501F09164
:100AC000B6018081E091BB01F091BC0182FD1BC0A9
:100AD00090818091BE018F5F8F732091BF0182173B
:100AE00041F0E091BE01F0E0EB55FE4F958F809311
:100AF000BE01FF91EF919F918F912F910F900FBEAB
:100B00000F901F9018958081F4CFE5EAF1E01382F1
:100B1000128288EE93E0A0E0B0E084839583A68300
:100B2000B78384E091E09183808385EC90E09587A2
:100B3000848784EC90E09787868780EC90E0918BA7
:100B4000808B81EC90E0938B828B82EC90E0958B94
:100B5000848B86EC90E0978B868B118E128E138E91
:100B6000148EA2E4B2E082E015968C93159786E18C
:100B700016968C931697E0EBF0E0E4911796EC93C1
:100B80001797ECE9F0E0E4911896EC93189740E899
:100B90005EE360E070E01D964D935D936D937C93F2
:100BA00050970895CF93DF93CDB7DEB72C970FB64C
:100BB000F894DEBF0FBECDBF789484B5826084BD4B
:100BC00084B5816084BD85B5826085BD85B5816051
:100BD00085BD80916E00816080936E0010928100CF
:100BE000809181008260809381008091810081608A
:100BF000809381008091800081608093800080914B
:100C0000B10084608093B1008091B00081608093D6
:100C1000B00080917A00846080937A0080917A009D
:100C2000826080937A0080917A00816080937A005C
:100C300080917A00806880937A001092C100E091E0
:100C4000B501F091B60182E08083E091B101F091AD
:100C5000B2011082E091B301F091B4018FEC808376
:100C60001092BD01E091B901F091BA0186E0808354
:100C7000E091B701F091B801808180618083E091BB
:100C8000B701F091B801808188608083E091B7015D
:100C9000F091B801808180688083E091B701F09184
:100CA000B80180818F7D80838EE191E00E94B60340
:100CB00088E391E00E94B60362E0809147020E94BF
:100CC000C4002FB7F8948091A1019091A201A09146
:100CD000A301B091A4012FBF805D9740A109B10984
:100CE00080934B0290934C02A0934D02B0934E021E
:100CF00087E38093540260ED77E080E090E00E940B
:100D00001A010E944C01882349F0809148028B30DF
:100D100028F08D3050F085518230B8F1812C912C23
:100D200090ECA92E9FE7B92E1EC06091430270E09F
:100D300090E080E00E94870A2DEC3CEC4CEC5DE3F7
:100D40000E943C0B6B017C016091420270E090E0DC
:100D500080E00E94870A9B01AC01C701B6010E9496
:100D600073094B015C010E944C01882309F47DC08A
:100D7000809148028C3009F48DC0C8F48B30B1F1F9
:100D800080E090E0A0ECBFE7AAC0609142027091C1
:100D9000430276276727762790E080E00E94850A45
:100DA0002DEC3CEC4CEC5DE30E943C0BDACF855122
:100DB000823030F7F09044026F2D70E0762F662776
:100DC00066277F7780914502682B90E080E00E9443
:100DD000850A2DEC3CEC4CEC5DE30E943C0B6983F6
:100DE0007A838B839C83F7FE2DC076C0609144028A
:100DF00070E090E080E00E94850A6B017C01109118
:100E0000450217FF0AC0AC019B0160E070E080E87A
:100E10009FEB0E9472096B017C011F70612F70E0D3
:100E200090E080E00E94870A2DEC3CEC4CEC5DE306
:100E30000E943C0BA70196010E94730969837A8383
:100E40008B839C83A5019401C501B4010E94EF0B23
:100E500081110BC029813A814B815C81CA01B901A2
:100E60000E94EF0B882309F43FC08BE391E00E94BE
:100E7000B60388E391E00E94B603A0E0B0E0AB2B9C
:100E800009F439CF0E941303882309F434CF0E9458
:100E9000000031CF10914402612F70E090E080E0BB
:100EA0000E94850A6B017C01609145026F7070E0C1
:100EB00090E080E00E94870A2DEC3CEC4CEC5DE376
:100EC0000E943C0BA70196010E94730969837A83F3
:100ED0008B839C8317FFB6CFDC01CB01B05889838D
:100EE0009A83AB83BC83AECF26E636E646EE5FE35D
:100EF00069817A818B819C810E943C0B20E030E0EB
:100F000040E052E40E9473092B013C0120E030E0F4
:100F100048E852E40E9472092AE939E949E95FE3A5
:100F20000E943C0B6B017C0120E030E044E752E47E
:100F3000C301B2010E9473099B01AC01C701B60154
:100F40000E9473096B017C0122E133E840EC5DE310
:100F5000C501B4010E943C0B9B01AC01C701B60165
:100F60000E94730920E030E040E05FE30E943C0B08
:100F70006B017C0120E030E04EE952E40E94370B27
:100F800018160CF013C1A3019201C301B2010E9413
:100F90003C0B6D837E838F839887A5019401C501E7
:100FA000B4010E943C0B69877A878B879C8721E17B
:100FB00033E243E050E4C301B2010E943C0B29E15B
:100FC00034E849E252E40E9472096B017C0126E197
:100FD0003BE442E251E4C501B4010E943C0B9B0199
:100FE000AC01C701B6010E9473096B017C0128E4C2
:100FF00036E246E65EEBC301B2010E943C0BA5015E
:1010000094010E943C0B9B01AC01C701B6010E94F8
:1010100073096B017C0120EE3FE040EE5BEB6D81DC
:101020007E818F8198850E943C0B9B01AC01C7019A
:10103000B6010E9473096B017C0128EF37E840E696
:101040005DEB69857A858B859C850E943C0B9B01B5
:10105000AC01C701B6010E9473096B017C012CEA47
:101060003DE041EA5AE36D817E818F8198850E943F
:101070003C0BA50194010E943C0B9B01AC01C701F4
:10108000B6010E9473096B017C0128EC3FE84FE533
:101090005AE3C301B2010E943C0B29853A854B8576
:1010A0005C850E943C0B9B01AC01C701B6010E940C
:1010B00073096B017C0121EF3BE845E056EB6D8144
:1010C0007E818F8198850E943C0B29853A854B85CE
:1010D0005C850E943C0B9B01AC01C701B6010E94DC
:1010E00073096B017C0120E030E040E551E4C5016B
:1010F000B4010E94DF0987FF9AC020E030E040EA97
:1011000052E4C301B2010E94370B87FD90C020E07A
:1011100030E040EE52E4C301B2010E94DF0918162C
:101120000CF4D4C0A501940160E070E080E591E486
:101130000E94720920E030E040E85EE30E943C0B30
:101140006D837E838F83988720E030E04EEB52E4FE
:10115000C301B2010E9472092B013C0120E030E082
:10116000A9010E94370B18160CF058C0A301920178
:1011700060E070E088E891E40E9472092EE33DEEA1
:1011800040E75DE30E943C0B0E94AF0B9B01AC016A
:101190006D817E818F8198850E943C0B9B01AC0103
:1011A000C701B6010E9472096B017C0189E591E0DB
:1011B0000E94B60342E0C501B4010E94070483E621
:1011C00091E00E94B60389E691E00E94B60342E0F6
:1011D00069817A818B819C810E94070487E791E075
:1011E0000E94B6038EE791E00E94B60320E030E053
:1011F00040E052E4C701B6010E94720926E838E3D4
:101200004EE05FE30E943C0B42E00E94070482E94B
:1012100091E00E94B60388E991E02DCE20E030E015
:1012200048E851E4C301B2010E947309A7CF20E04E
:1012300030E04AEA52E4C501B4010E94370B1816A7
:101240000CF0B4CF20E030E040EA52E4C301B20138
:101250000E94370B87FDAACF20E030E04EEA52E42F
:10126000C301B2010E94DF0918160CF49FCF20E0E1
:1012700030E04AEA52E4C501B4010E9472092DEC43
:101280003CEC4CEC5DE30E943C0B6D837E838F83D2
:101290009887A301920160E070E08EEA92E40E94D8
:1012A00072092DEC3CEC4CE45EE30E943C0B9B018C
:1012B000AC016D817E818F8198850E943C0B9B01E2
:1012C000AC01C701B6010E9473096ECF20E030E087
:1012D0004AEA52E4C501B4010E94370B18160CF01B
:1012E00065CFBACF5058BB27AA270E948A090C9411
:1012F000FD0A0E94EF0A38F00E94F60A20F039F445
:101300009F3F19F426F40C94EC0A0EF4E095E7FBE9
:101310000C94E60AE92F0E940E0B58F3BA176207E5
:1013200073078407950720F079F4A6F50C94300B29
:101330000EF4E0950B2EBA2FA02D0B01B9019001F0
:101340000C01CA01A0011124FF27591B99F0593F34
:1013500050F4503E68F11A16F040A22F232F342F7C
:101360004427585FF3CF469537952795A795F040CA
:101370005395C9F77EF41F16BA0B620B730B840BDF
:10138000BAF09150A1F0FF0FBB1F661F771F881F97
:10139000C2F70EC0BA0F621F731F841F48F48795EF
:1013A00077956795B795F7959E3F08F0B0CF9395E1
:1013B000880F08F09927EE0F9795879508950E945A
:1013C000C20A08F481E008950E94F8090C94FD0A0D
:1013D0000E94F60A58F00E94EF0A40F029F45F3F9D
:1013E00029F00C94E60A51110C94310B0C94EC0A80
:1013F0000E940E0B68F39923B1F3552391F3951BCB
:10140000550BBB27AA2762177307840738F09F5F25
:101410005F4F220F331F441FAA1FA9F335D00E2E92
:101420003AF0E0E832D091505040E695001CCAF7FF
:101430002BD0FE2F29D0660F771F881FBB1F2617C2
:1014400037074807AB07B0E809F0BB0B802DBF0199
:10145000FF2793585F4F3AF09E3F510578F00C9468
:10146000E60A0C94310B5F3FE4F3983ED4F3869583
:1014700077956795B795F7959F5FC9F7880F911D89
:101480009695879597F90895E1E0660F771F881F75
:10149000BB1F621773078407BA0720F0621B730B28
:1014A000840BBA0BEE1F88F7E09508950E94160B87
:1014B00088F09F5798F0B92F9927B751B0F0E1F015
:1014C000660F771F881F991F1AF0BA95C9F714C0C5
:1014D000B13091F00E94300BB1E008950C94300BC4
:1014E000672F782F8827B85F39F0B93FCCF38695FE
:1014F00077956795B395D9F73EF49095809570955B
:1015000061957F4F8F4F9F4F0895E89409C097FBD7
:101510003EF490958095709561957F4F8F4F9F4FCA
:101520009923A9F0F92F96E9BB279395F69587950E
:1015300077956795B795F111F8CFFAF4BB0F11F4D1
:1015400060FF1BC06F5F7F4F8F4F9F4F16C0882378
:1015500011F096E911C0772321F09EE8872F762FAE
:1015600005C0662371F096E8862F70E060E02AF0EF
:101570009A95660F771F881FDAF7880F96958795DB
:1015800097F90895990F0008550FAA0BE0E8FEEFB0
:1015900016161706E807F907C0F012161306E40737
:1015A000F50798F0621B730B840B950B39F40A2630
:1015B00061F0232B242B252B21F408950A2609F40E
:1015C000A140A6958FEF811D811D089597F99F6712
:1015D00080E870E060E008959FEF80EC08950024BB
:1015E0000A941616170618060906089500240A9488
:1015F00012161306140605060895092E0394000C0E
:1016000011F4882352F0BB0F40F4BF2B11F460FF9C
:1016100004C06F5F7F4F8F4F9F4F089557FD9058C5
:10162000440F551F59F05F3F71F04795880F97FBA6
:10163000991F61F09F3F79F0879508951216130660
:101640001406551FF2CF4695F1DF08C0161617068F
:101650001806991FF1CF86957105610508940895C4
:10166000E894BB2766277727CB0197F908950E9456
:10167000C20A08F48FEF08950E944F0B0C94FD0AE4
:101680000E94EF0A38F00E94F60A20F0952311F02C
:101690000C94E60A0C94EC0A11240C94310B0E9471
:1016A0000E0B70F3959FC1F3950F50E0551F629F8D
:1016B000F001729FBB27F00DB11D639FAA27F00DAB
:1016C000B11DAA1F649F6627B00DA11D661F829FD2
:1016D0002227B00DA11D621F739FB00DA11D621FB7
:1016E000839FA00D611D221F749F3327A00D611DD4
:1016F000231F849F600D211D822F762F6A2F1124B6
:101700009F5750409AF0F1F088234AF0EE0FFF1FE8
:10171000BB1F661F771F881F91505040A9F79E3F3F
:10172000510580F00C94E60A0C94310B5F3FE4F312
:10173000983ED4F3869577956795B795F795E79595
:101740009F5FC1F7FE2B880F911D9695879597F99E
:10175000089519F416F40C94EC0A0C94F40B0E94FE
:10176000160BB8F39923C9F3B6F39F57550B87FFB0
:101770000E94020C0024A0E640EA90018058569591
:10178000979528F4805C660F771F881F20F0261736
:101790003707480730F4621B730B840B202931296B
:1017A0004A2BA69517940794202531254A2758F7E8
:1017B000660F771F881F20F026173707480730F479
:1017C000620B730B840B200D311D411DA09581F719
:1017D000B901842F9158880F9695879508950E9496
:1017E000C20A880B990B08959F3F31F0915020F465
:1017F000879577956795B795880F911D96958795ED
:1018000097F9089591505040660F771F881FD2F7BF
:101810000895A1E21A2EAA1BBB1BFD010DC0AA1F31
:10182000BB1FEE1FFF1FA217B307E407F50720F049
:10183000A21BB30BE40BF50B661F771F881F991FC4
:101840001A9469F760957095809590959B01AC010D
:10185000BD01CF010895EE0FFF1F0590F491E02D1B
:061860000994F894FFCF8B
:10186600000000004903A902D60296030703E50219
:10187600F9026E616E00696E66006F7666005072E0
:101886006F62616E646F20656C2053656E736F7254
:101896002044485421200A000D0A0046616C6C6100
:1018A600206465206C6563747572612064656C20C4
:1018B60053656E736F72210A0048756D65646164C5
:1018C6003A200020252E200A0054656D706572614D
:1018D600747572613A20002067432E200A00536512
:1018E6006E736163696F6E205465726D6963613AE8
:0C18F60020002067432E0A000A200A0090
:00000001FF
