:100000000C9461000C9473000C9473000C947300B6
:100010000C9473000C9473000C9473000C94730094
:100020000C9473000C9473000C9473000C94730084
:100030000C9473000C9473000C9473000C94730074
:100040000C941C010C9473000C9473000C947300BA
:100050000C9473000C9473000C9473000C94730054
:100060000C9473000C94730000000000240027001F
:100070002A0000000000250028002B0004040404CE
:100080000404040402020202020203030303030342
:10009000020203010204081020408001020408103B
:1000A00020010204081020408040000000090003E5
:1000B000020000040508000000000000000000002D
:1000C000000011241FBECFEFD8E0DEBFCDBF21E07E
:1000D000A0E0B1E001C01D92A930B207E1F70E9493
:1000E00066010C94BC010C94000090E0FC01E65504
:1000F000FF4F2491FC01ED56FF4F3491FC01E45871
:10010000FF4FE491EE23C9F0222339F0243001F1AE
:10011000A8F4223069F1233079F1F0E0EE0FFF1FEF
:10012000EE58FF4FA591B4918FB7F894EC916111FF
:1001300026C030953E233C938FBF0895283071F040
:10014000293091F0253049F7809180008F7D03C0E0
:10015000809180008F7780938000DFCF8091B00006
:100160008F778093B000D9CF8091B0008F7DF9CF89
:1001700084B58F7784BDD1CF84B58F7DFBCF3E2BE7
:10018000DACF3FB7F8948091050190910601A091D4
:100190000701B091080126B5A89B05C02F3F19F0B3
:1001A0000196A11DB11D3FBFBA2FA92F982F8827F7
:1001B000BC01CD01620F711D811D911D42E0660FD2
:1001C000771F881F991F4A95D1F708958F929F92A4
:1001D000AF92BF92CF92DF92EF92FF920E94C10046
:1001E0004B015C0188EEC82E83E0D82EE12CF12C67
:1001F0000E94C100681979098A099B09683E734009
:1002000081059105A8F321E0C21AD108E108F1089F
:1002100088EE880E83E0981EA11CB11CC114D10485
:10022000E104F10429F7FF90EF90DF90CF90BF90A9
:10023000AF909F908F9008951F920F920FB60F92DC
:1002400011242F933F938F939F93AF93BF938091EC
:10025000010190910201A0910301B091040130913C
:10026000000123E0230F2D3768F126E8230F0296C3
:10027000A11DB11D20930001809301019093020103
:10028000A0930301B09304018091050190910601B0
:10029000A0910701B09108010196A11DB11D8093A5
:1002A000050190930601A0930701B0930801BF9147
:1002B000AF919F918F913F912F910F900FBE0F9013
:1002C0001F9018950196A11DB11DD4CF789484B5C7
:1002D000836084BD85B5836085BD80916E0081603B
:1002E00080936E0082E08093810080918100816024
:1002F0008093810080918000816080938000809154
:10030000B10084608093B1008091B00081608093DF
:10031000B00087E880937A001092C100E5E9F0E030
:100320002491EEE7F0E08491882399F090E0880F23
:10033000991FFC01E859FF4FA591B491FC01EE58BB
:10034000FF4F859194918FB7F894EC91E22BEC9349
:100350008FBFC0E0D0E061E082E00E9475000E94A3
:10036000E60060E082E00E9475000E94E6002097AF
:0C03700091F30E940000EFCFF894FFCF43
:00000001FF
